{
  "address": "0xe7f1725E7734CE288F8367e1Bb143E90bb3F0512",
  "abi": [
    {
      "inputs": [
        {
          "internalType": "address",
          "name": "priceFeedAddress",
          "type": "address"
        }
      ],
      "stateMutability": "nonpayable",
      "type": "constructor"
    },
    {
      "inputs": [],
      "name": "FundMe__NotOwner",
      "type": "error"
    },
    {
      "inputs": [],
      "name": "MINIMUM_USD",
      "outputs": [
        {
          "internalType": "uint256",
          "name": "",
          "type": "uint256"
        }
      ],
      "stateMutability": "view",
      "type": "function"
    },
    {
      "inputs": [
        {
          "internalType": "address",
          "name": "funder",
          "type": "address"
        }
      ],
      "name": "addressToAmountFunded",
      "outputs": [
        {
          "internalType": "uint256",
          "name": "",
          "type": "uint256"
        }
      ],
      "stateMutability": "view",
      "type": "function"
    },
    {
      "inputs": [],
      "name": "cheaperWithdraw",
      "outputs": [],
      "stateMutability": "payable",
      "type": "function"
    },
    {
      "inputs": [],
      "name": "fetOwner",
      "outputs": [
        {
          "internalType": "address",
          "name": "",
          "type": "address"
        }
      ],
      "stateMutability": "view",
      "type": "function"
    },
    {
      "inputs": [],
      "name": "fund",
      "outputs": [],
      "stateMutability": "payable",
      "type": "function"
    },
    {
      "inputs": [],
      "name": "getPriceFeed",
      "outputs": [
        {
          "internalType": "contract AggregatorV3Interface",
          "name": "",
          "type": "address"
        }
      ],
      "stateMutability": "view",
      "type": "function"
    },
    {
      "inputs": [
        {
          "internalType": "uint256",
          "name": "index",
          "type": "uint256"
        }
      ],
      "name": "getfunder",
      "outputs": [
        {
          "internalType": "address",
          "name": "",
          "type": "address"
        }
      ],
      "stateMutability": "view",
      "type": "function"
    },
    {
      "inputs": [],
      "name": "withdraw",
      "outputs": [],
      "stateMutability": "nonpayable",
      "type": "function"
    }
  ],
  "transactionHash": "0x28bb944ae6b6838a42cbd14ff4897a40b58ebc597b6cd2c7049a9f7baa1dcf69",
  "args": [
    "0x5FbDB2315678afecb367f032d93F642f64180aa3"
  ],
  "numDeployments": 1,
  "solcInputHash": "ddd7c1a310a29dee838d466e2e03badb",
  "bytecode": "0x60a06040523480156200001157600080fd5b50604051620012d1380380620012d1833981810160405281019062000037919062000120565b3373ffffffffffffffffffffffffffffffffffffffff1660808173ffffffffffffffffffffffffffffffffffffffff1660601b8152505080600260006101000a81548173ffffffffffffffffffffffffffffffffffffffff021916908373ffffffffffffffffffffffffffffffffffffffff1602179055505062000152565b600080fd5b600073ffffffffffffffffffffffffffffffffffffffff82169050919050565b6000620000e882620000bb565b9050919050565b620000fa81620000db565b81146200010657600080fd5b50565b6000815190506200011a81620000ef565b92915050565b600060208284031215620001395762000138620000b6565b5b6000620001498482850162000109565b91505092915050565b60805160601c61114b62000186600039600081816101aa01528181610218015281816106110152610807015261114b6000f3fe60806040526004361061007b5760003560e01c80636b69a5921161004e5780636b69a5921461013c5780639e87a5cd14610167578063b60d428814610192578063be2693f01461019c5761007b565b806310f17310146100805780633726102d146100ab5780633ccfd60b146100e85780633e47d6f3146100ff575b600080fd5b34801561008c57600080fd5b506100956101a6565b6040516100a29190610a61565b60405180910390f35b3480156100b757600080fd5b506100d260048036038101906100cd9190610ab7565b6101ce565b6040516100df9190610a61565b60405180910390f35b3480156100f457600080fd5b506100fd610216565b005b34801561010b57600080fd5b5061012660048036038101906101219190610b10565b610456565b6040516101339190610b4c565b60405180910390f35b34801561014857600080fd5b5061015161049e565b60405161015e9190610b4c565b60405180910390f35b34801561017357600080fd5b5061017c6104ab565b6040516101899190610bc6565b60405180910390f35b61019a6104d5565b005b6101a461060f565b005b60007f0000000000000000000000000000000000000000000000000000000000000000905090565b6000600182815481106101e4576101e3610be1565b5b9060005260206000200160009054906101000a900473ffffffffffffffffffffffffffffffffffffffff169050919050565b7f000000000000000000000000000000000000000000000000000000000000000073ffffffffffffffffffffffffffffffffffffffff163373ffffffffffffffffffffffffffffffffffffffff161461029b576040517f579610db00000000000000000000000000000000000000000000000000000000815260040160405180910390fd5b60005b600180549050811015610346576000600182815481106102c1576102c0610be1565b5b9060005260206000200160009054906101000a900473ffffffffffffffffffffffffffffffffffffffff16905060008060008373ffffffffffffffffffffffffffffffffffffffff1673ffffffffffffffffffffffffffffffffffffffff1681526020019081526020016000208190555050808061033e90610c3f565b91505061029e565b50600067ffffffffffffffff81111561036257610361610c88565b5b6040519080825280602002602001820160405280156103905781602001602082028036833780820191505090505b50600190805190602001906103a6929190610979565b5060003373ffffffffffffffffffffffffffffffffffffffff16476040516103cd90610ce8565b60006040518083038185875af1925050503d806000811461040a576040519150601f19603f3d011682016040523d82523d6000602084013e61040f565b606091505b5050905080610453576040517f08c379a000000000000000000000000000000000000000000000000000000000815260040161044a90610d5a565b60405180910390fd5b50565b60008060008373ffffffffffffffffffffffffffffffffffffffff1673ffffffffffffffffffffffffffffffffffffffff168152602001908152602001600020549050919050565b6802b5e3af16b188000081565b6000600260009054906101000a900473ffffffffffffffffffffffffffffffffffffffff16905090565b6802b5e3af16b1880000610514600260009054906101000a900473ffffffffffffffffffffffffffffffffffffffff163461089d90919063ffffffff16565b1015610555576040517f08c379a000000000000000000000000000000000000000000000000000000000815260040161054c90610dc6565b60405180910390fd5b346000803373ffffffffffffffffffffffffffffffffffffffff1673ffffffffffffffffffffffffffffffffffffffff16815260200190815260200160002060008282546105a39190610de6565b925050819055506001339080600181540180825580915050600190039060005260206000200160009091909190916101000a81548173ffffffffffffffffffffffffffffffffffffffff021916908373ffffffffffffffffffffffffffffffffffffffff160217905550565b7f000000000000000000000000000000000000000000000000000000000000000073ffffffffffffffffffffffffffffffffffffffff163373ffffffffffffffffffffffffffffffffffffffff1614610694576040517f579610db00000000000000000000000000000000000000000000000000000000815260040160405180910390fd5b6000600180548060200260200160405190810160405280929190818152602001828054801561071857602002820191906000526020600020905b8160009054906101000a900473ffffffffffffffffffffffffffffffffffffffff1673ffffffffffffffffffffffffffffffffffffffff16815260200190600101908083116106ce575b5050505050905060005b81518110156107a25760008282815181106107405761073f610be1565b5b6020026020010151905060008060008373ffffffffffffffffffffffffffffffffffffffff1673ffffffffffffffffffffffffffffffffffffffff1681526020019081526020016000208190555050808061079a90610c3f565b915050610722565b50600067ffffffffffffffff8111156107be576107bd610c88565b5b6040519080825280602002602001820160405280156107ec5781602001602082028036833780820191505090505b5060019080519060200190610802929190610979565b5060007f000000000000000000000000000000000000000000000000000000000000000073ffffffffffffffffffffffffffffffffffffffff164760405161084990610ce8565b60006040518083038185875af1925050503d8060008114610886576040519150601f19603f3d011682016040523d82523d6000602084013e61088b565b606091505b505090508061089957600080fd5b5050565b6000806108a9836108d9565b90506000670de0b6b3a764000085836108c29190610e3c565b6108cc9190610ec5565b9050809250505092915050565b6000808273ffffffffffffffffffffffffffffffffffffffff1663feaf968c6040518163ffffffff1660e01b815260040160a06040518083038186803b15801561092257600080fd5b505afa158015610936573d6000803e3d6000fd5b505050506040513d601f19601f8201168201806040525081019061095a9190610f83565b5050509150506402540be400816109719190610ffe565b915050919050565b8280548282559060005260206000209081019282156109f2579160200282015b828111156109f15782518260006101000a81548173ffffffffffffffffffffffffffffffffffffffff021916908373ffffffffffffffffffffffffffffffffffffffff16021790555091602001919060010190610999565b5b5090506109ff9190610a03565b5090565b5b80821115610a1c576000816000905550600101610a04565b5090565b600073ffffffffffffffffffffffffffffffffffffffff82169050919050565b6000610a4b82610a20565b9050919050565b610a5b81610a40565b82525050565b6000602082019050610a766000830184610a52565b92915050565b600080fd5b6000819050919050565b610a9481610a81565b8114610a9f57600080fd5b50565b600081359050610ab181610a8b565b92915050565b600060208284031215610acd57610acc610a7c565b5b6000610adb84828501610aa2565b91505092915050565b610aed81610a40565b8114610af857600080fd5b50565b600081359050610b0a81610ae4565b92915050565b600060208284031215610b2657610b25610a7c565b5b6000610b3484828501610afb565b91505092915050565b610b4681610a81565b82525050565b6000602082019050610b616000830184610b3d565b92915050565b6000819050919050565b6000610b8c610b87610b8284610a20565b610b67565b610a20565b9050919050565b6000610b9e82610b71565b9050919050565b6000610bb082610b93565b9050919050565b610bc081610ba5565b82525050565b6000602082019050610bdb6000830184610bb7565b92915050565b7f4e487b7100000000000000000000000000000000000000000000000000000000600052603260045260246000fd5b7f4e487b7100000000000000000000000000000000000000000000000000000000600052601160045260246000fd5b6000610c4a82610a81565b91507fffffffffffffffffffffffffffffffffffffffffffffffffffffffffffffffff821415610c7d57610c7c610c10565b5b600182019050919050565b7f4e487b7100000000000000000000000000000000000000000000000000000000600052604160045260246000fd5b600081905092915050565b50565b6000610cd2600083610cb7565b9150610cdd82610cc2565b600082019050919050565b6000610cf382610cc5565b9150819050919050565b600082825260208201905092915050565b7f43616c6c206661696c6564000000000000000000000000000000000000000000600082015250565b6000610d44600b83610cfd565b9150610d4f82610d0e565b602082019050919050565b60006020820190508181036000830152610d7381610d37565b9050919050565b7f596f75206e65656420746f207370656e64206d6f726520455448210000000000600082015250565b6000610db0601b83610cfd565b9150610dbb82610d7a565b602082019050919050565b60006020820190508181036000830152610ddf81610da3565b9050919050565b6000610df182610a81565b9150610dfc83610a81565b9250827fffffffffffffffffffffffffffffffffffffffffffffffffffffffffffffffff03821115610e3157610e30610c10565b5b828201905092915050565b6000610e4782610a81565b9150610e5283610a81565b9250817fffffffffffffffffffffffffffffffffffffffffffffffffffffffffffffffff0483118215151615610e8b57610e8a610c10565b5b828202905092915050565b7f4e487b7100000000000000000000000000000000000000000000000000000000600052601260045260246000fd5b6000610ed082610a81565b9150610edb83610a81565b925082610eeb57610eea610e96565b5b828204905092915050565b600069ffffffffffffffffffff82169050919050565b610f1581610ef6565b8114610f2057600080fd5b50565b600081519050610f3281610f0c565b92915050565b6000819050919050565b610f4b81610f38565b8114610f5657600080fd5b50565b600081519050610f6881610f42565b92915050565b600081519050610f7d81610a8b565b92915050565b600080600080600060a08688031215610f9f57610f9e610a7c565b5b6000610fad88828901610f23565b9550506020610fbe88828901610f59565b9450506040610fcf88828901610f6e565b9350506060610fe088828901610f6e565b9250506080610ff188828901610f23565b9150509295509295909350565b600061100982610f38565b915061101483610f38565b9250827f7fffffffffffffffffffffffffffffffffffffffffffffffffffffffffffffff048211600084136000841316161561105357611052610c10565b5b817f800000000000000000000000000000000000000000000000000000000000000005831260008412600084131616156110905761108f610c10565b5b827f800000000000000000000000000000000000000000000000000000000000000005821260008413600084121616156110cd576110cc610c10565b5b827f7fffffffffffffffffffffffffffffffffffffffffffffffffffffffffffffff058212600084126000841216161561110a57611109610c10565b5b82820290509291505056fea2646970667358221220d50aba3117e0bd50859d738da0f013eb89f67353c270b7fa162cfdffaf594c3864736f6c63430008080033",
  "devdoc": {
    "author": "jun",
    "details": "This implements price feeds as our library",
    "kind": "dev",
    "methods": {},
    "title": "A contract for crowed funding",
    "version": 1
  },
  "userdoc": {
    "kind": "user",
    "methods": {},
    "notice": "This contract is to demo a sample funding contract",
    "version": 1
  },
  "storageLayout": {
    "storage": [
      {
        "astId": 59,
        "contract": "contracts/FundMe.sol:FundMe",
        "label": "s_addressToAmountFunded",
        "offset": 0,
        "slot": "0",
        "type": "t_mapping(t_address,t_uint256)"
      },
      {
        "astId": 62,
        "contract": "contracts/FundMe.sol:FundMe",
        "label": "s_funders",
        "offset": 0,
        "slot": "1",
        "type": "t_array(t_address)dyn_storage"
      },
      {
        "astId": 74,
        "contract": "contracts/FundMe.sol:FundMe",
        "label": "s_priceFeed",
        "offset": 0,
        "slot": "2",
        "type": "t_contract(AggregatorV3Interface)45"
      }
    ],
    "types": {
      "t_address": {
        "encoding": "inplace",
        "label": "address",
        "numberOfBytes": "20"
      },
      "t_array(t_address)dyn_storage": {
        "base": "t_address",
        "encoding": "dynamic_array",
        "label": "address[]",
        "numberOfBytes": "32"
      },
      "t_contract(AggregatorV3Interface)45": {
        "encoding": "inplace",
        "label": "contract AggregatorV3Interface",
        "numberOfBytes": "20"
      },
      "t_mapping(t_address,t_uint256)": {
        "encoding": "mapping",
        "key": "t_address",
        "label": "mapping(address => uint256)",
        "numberOfBytes": "32",
        "value": "t_uint256"
      },
      "t_uint256": {
        "encoding": "inplace",
        "label": "uint256",
        "numberOfBytes": "32"
      }
    }
  }
}